{
  "_format": "hh-sol-artifact-1",
  "contractName": "MedicalWallet",
  "sourceName": "contracts/MedicalWallet.sol",
  "abi": [
    {
      "inputs": [],
      "stateMutability": "nonpayable",
      "type": "constructor"
    },
    {
      "anonymous": false,
      "inputs": [
        {
          "indexed": true,
          "internalType": "address",
          "name": "patient",
          "type": "address"
        },
        {
          "indexed": true,
          "internalType": "address",
          "name": "doctor",
          "type": "address"
        }
      ],
      "name": "AccessApproved",
      "type": "event"
    },
    {
      "anonymous": false,
      "inputs": [
        {
          "indexed": true,
          "internalType": "address",
          "name": "patient",
          "type": "address"
        },
        {
          "indexed": true,
          "internalType": "address",
          "name": "doctor",
          "type": "address"
        }
      ],
      "name": "AccessRequested",
      "type": "event"
    },
    {
      "anonymous": false,
      "inputs": [
        {
          "indexed": true,
          "internalType": "address",
          "name": "doctor",
          "type": "address"
        },
        {
          "indexed": true,
          "internalType": "address",
          "name": "patient",
          "type": "address"
        },
        {
          "indexed": false,
          "internalType": "uint256",
          "name": "index",
          "type": "uint256"
        }
      ],
      "name": "AppointmentApproved",
      "type": "event"
    },
    {
      "anonymous": false,
      "inputs": [
        {
          "indexed": true,
          "internalType": "address",
          "name": "doctor",
          "type": "address"
        },
        {
          "indexed": true,
          "internalType": "address",
          "name": "patient",
          "type": "address"
        },
        {
          "indexed": false,
          "internalType": "uint256",
          "name": "index",
          "type": "uint256"
        }
      ],
      "name": "AppointmentRejected",
      "type": "event"
    },
    {
      "anonymous": false,
      "inputs": [
        {
          "indexed": true,
          "internalType": "address",
          "name": "patient",
          "type": "address"
        },
        {
          "indexed": true,
          "internalType": "address",
          "name": "doctor",
          "type": "address"
        },
        {
          "indexed": false,
          "internalType": "uint256",
          "name": "date",
          "type": "uint256"
        },
        {
          "indexed": false,
          "internalType": "uint256",
          "name": "time",
          "type": "uint256"
        }
      ],
      "name": "AppointmentRequested",
      "type": "event"
    },
    {
      "anonymous": false,
      "inputs": [
        {
          "indexed": true,
          "internalType": "address",
          "name": "doctor",
          "type": "address"
        },
        {
          "indexed": false,
          "internalType": "string",
          "name": "name",
          "type": "string"
        }
      ],
      "name": "DoctorRegistered",
      "type": "event"
    },
    {
      "anonymous": false,
      "inputs": [
        {
          "indexed": true,
          "internalType": "address",
          "name": "patient",
          "type": "address"
        },
        {
          "indexed": false,
          "internalType": "string",
          "name": "name",
          "type": "string"
        }
      ],
      "name": "PatientRegistered",
      "type": "event"
    },
    {
      "inputs": [
        {
          "internalType": "address",
          "name": "patient",
          "type": "address"
        },
        {
          "internalType": "string",
          "name": "notes",
          "type": "string"
        }
      ],
      "name": "addTreatment",
      "outputs": [],
      "stateMutability": "nonpayable",
      "type": "function"
    },
    {
      "inputs": [],
      "name": "admin",
      "outputs": [
        {
          "internalType": "address",
          "name": "",
          "type": "address"
        }
      ],
      "stateMutability": "view",
      "type": "function"
    },
    {
      "inputs": [
        {
          "internalType": "uint256",
          "name": "index",
          "type": "uint256"
        }
      ],
      "name": "approveAppointment",
      "outputs": [],
      "stateMutability": "nonpayable",
      "type": "function"
    },
    {
      "inputs": [
        {
          "internalType": "address",
          "name": "doctor",
          "type": "address"
        }
      ],
      "name": "approveMedicalAccess",
      "outputs": [],
      "stateMutability": "nonpayable",
      "type": "function"
    },
    {
      "inputs": [
        {
          "internalType": "address",
          "name": "",
          "type": "address"
        },
        {
          "internalType": "address",
          "name": "",
          "type": "address"
        }
      ],
      "name": "doctorAccess",
      "outputs": [
        {
          "internalType": "bool",
          "name": "",
          "type": "bool"
        }
      ],
      "stateMutability": "view",
      "type": "function"
    },
    {
      "inputs": [
        {
          "internalType": "uint256",
          "name": "",
          "type": "uint256"
        }
      ],
      "name": "doctorAddresses",
      "outputs": [
        {
          "internalType": "address",
          "name": "",
          "type": "address"
        }
      ],
      "stateMutability": "view",
      "type": "function"
    },
    {
      "inputs": [
        {
          "internalType": "address",
          "name": "",
          "type": "address"
        },
        {
          "internalType": "uint256",
          "name": "",
          "type": "uint256"
        }
      ],
      "name": "doctorAppointments",
      "outputs": [
        {
          "internalType": "address",
          "name": "patient",
          "type": "address"
        },
        {
          "internalType": "address",
          "name": "doctor",
          "type": "address"
        },
        {
          "internalType": "uint256",
          "name": "date",
          "type": "uint256"
        },
        {
          "internalType": "uint256",
          "name": "time",
          "type": "uint256"
        },
        {
          "internalType": "enum MedicalWallet.AppointmentStatus",
          "name": "status",
          "type": "uint8"
        }
      ],
      "stateMutability": "view",
      "type": "function"
    },
    {
      "inputs": [],
      "name": "doctorCount",
      "outputs": [
        {
          "internalType": "uint256",
          "name": "",
          "type": "uint256"
        }
      ],
      "stateMutability": "view",
      "type": "function"
    },
    {
      "inputs": [
        {
          "internalType": "address",
          "name": "",
          "type": "address"
        }
      ],
      "name": "doctors",
      "outputs": [
        {
          "internalType": "string",
          "name": "name",
          "type": "string"
        },
        {
          "internalType": "string",
          "name": "specialization",
          "type": "string"
        },
        {
          "internalType": "uint256",
          "name": "experience",
          "type": "uint256"
        },
        {
          "internalType": "string",
          "name": "licenseNumber",
          "type": "string"
        },
        {
          "internalType": "string",
          "name": "ipfsHash",
          "type": "string"
        }
      ],
      "stateMutability": "view",
      "type": "function"
    },
    {
      "inputs": [],
      "name": "getAllDoctors",
      "outputs": [
        {
          "components": [
            {
              "internalType": "string",
              "name": "name",
              "type": "string"
            },
            {
              "internalType": "string",
              "name": "specialization",
              "type": "string"
            },
            {
              "internalType": "uint256",
              "name": "experience",
              "type": "uint256"
            },
            {
              "internalType": "string",
              "name": "licenseNumber",
              "type": "string"
            },
            {
              "internalType": "string",
              "name": "ipfsHash",
              "type": "string"
            }
          ],
          "internalType": "struct MedicalWallet.Doctor[]",
          "name": "",
          "type": "tuple[]"
        }
      ],
      "stateMutability": "view",
      "type": "function"
    },
    {
      "inputs": [],
      "name": "getAllDoctorsWithAddresses",
      "outputs": [
        {
          "internalType": "address[]",
          "name": "",
          "type": "address[]"
        },
        {
          "components": [
            {
              "internalType": "string",
              "name": "name",
              "type": "string"
            },
            {
              "internalType": "string",
              "name": "specialization",
              "type": "string"
            },
            {
              "internalType": "uint256",
              "name": "experience",
              "type": "uint256"
            },
            {
              "internalType": "string",
              "name": "licenseNumber",
              "type": "string"
            },
            {
              "internalType": "string",
              "name": "ipfsHash",
              "type": "string"
            }
          ],
          "internalType": "struct MedicalWallet.Doctor[]",
          "name": "",
          "type": "tuple[]"
        }
      ],
      "stateMutability": "view",
      "type": "function"
    },
    {
      "inputs": [],
      "name": "getCounts",
      "outputs": [
        {
          "internalType": "uint256",
          "name": "",
          "type": "uint256"
        },
        {
          "internalType": "uint256",
          "name": "",
          "type": "uint256"
        }
      ],
      "stateMutability": "view",
      "type": "function"
    },
    {
      "inputs": [
        {
          "internalType": "address",
          "name": "user",
          "type": "address"
        }
      ],
      "name": "getDoctor",
      "outputs": [
        {
          "components": [
            {
              "internalType": "string",
              "name": "name",
              "type": "string"
            },
            {
              "internalType": "string",
              "name": "specialization",
              "type": "string"
            },
            {
              "internalType": "uint256",
              "name": "experience",
              "type": "uint256"
            },
            {
              "internalType": "string",
              "name": "licenseNumber",
              "type": "string"
            },
            {
              "internalType": "string",
              "name": "ipfsHash",
              "type": "string"
            }
          ],
          "internalType": "struct MedicalWallet.Doctor",
          "name": "",
          "type": "tuple"
        }
      ],
      "stateMutability": "view",
      "type": "function"
    },
    {
      "inputs": [],
      "name": "getMyAppointments",
      "outputs": [
        {
          "components": [
            {
              "internalType": "address",
              "name": "patient",
              "type": "address"
            },
            {
              "internalType": "address",
              "name": "doctor",
              "type": "address"
            },
            {
              "internalType": "uint256",
              "name": "date",
              "type": "uint256"
            },
            {
              "internalType": "uint256",
              "name": "time",
              "type": "uint256"
            },
            {
              "internalType": "enum MedicalWallet.AppointmentStatus",
              "name": "status",
              "type": "uint8"
            }
          ],
          "internalType": "struct MedicalWallet.Appointment[]",
          "name": "",
          "type": "tuple[]"
        }
      ],
      "stateMutability": "view",
      "type": "function"
    },
    {
      "inputs": [
        {
          "internalType": "address",
          "name": "user",
          "type": "address"
        }
      ],
      "name": "getPatient",
      "outputs": [
        {
          "components": [
            {
              "internalType": "string",
              "name": "name",
              "type": "string"
            },
            {
              "internalType": "uint256",
              "name": "age",
              "type": "uint256"
            },
            {
              "internalType": "string",
              "name": "gender",
              "type": "string"
            },
            {
              "internalType": "string",
              "name": "idType",
              "type": "string"
            },
            {
              "internalType": "string",
              "name": "idNumber",
              "type": "string"
            },
            {
              "internalType": "string",
              "name": "ipfsHash",
              "type": "string"
            }
          ],
          "internalType": "struct MedicalWallet.Patient",
          "name": "",
          "type": "tuple"
        }
      ],
      "stateMutability": "view",
      "type": "function"
    },
    {
      "inputs": [
        {
          "internalType": "address",
          "name": "patient",
          "type": "address"
        }
      ],
      "name": "getPatientFiles",
      "outputs": [
        {
          "components": [
            {
              "internalType": "address",
              "name": "doctor",
              "type": "address"
            },
            {
              "internalType": "string",
              "name": "ipfsHash",
              "type": "string"
            },
            {
              "internalType": "uint256",
              "name": "timestamp",
              "type": "uint256"
            }
          ],
          "internalType": "struct MedicalWallet.DoctorFile[]",
          "name": "",
          "type": "tuple[]"
        }
      ],
      "stateMutability": "view",
      "type": "function"
    },
    {
      "inputs": [
        {
          "internalType": "address",
          "name": "_patient",
          "type": "address"
        }
      ],
      "name": "getPatientHash",
      "outputs": [
        {
          "internalType": "string",
          "name": "",
          "type": "string"
        }
      ],
      "stateMutability": "view",
      "type": "function"
    },
    {
      "inputs": [
        {
          "internalType": "address",
          "name": "patient",
          "type": "address"
        }
      ],
      "name": "getPatientPrescriptions",
      "outputs": [
        {
          "components": [
            {
              "internalType": "address",
              "name": "doctor",
              "type": "address"
            },
            {
              "internalType": "string",
              "name": "ipfsHash",
              "type": "string"
            },
            {
              "internalType": "uint256",
              "name": "timestamp",
              "type": "uint256"
            }
          ],
          "internalType": "struct MedicalWallet.Prescription[]",
          "name": "",
          "type": "tuple[]"
        }
      ],
      "stateMutability": "view",
      "type": "function"
    },
    {
      "inputs": [
        {
          "internalType": "address",
          "name": "patient",
          "type": "address"
        }
      ],
      "name": "getPatientTreatments",
      "outputs": [
        {
          "components": [
            {
              "internalType": "address",
              "name": "doctor",
              "type": "address"
            },
            {
              "internalType": "string",
              "name": "notes",
              "type": "string"
            },
            {
              "internalType": "uint256",
              "name": "timestamp",
              "type": "uint256"
            }
          ],
          "internalType": "struct MedicalWallet.Treatment[]",
          "name": "",
          "type": "tuple[]"
        }
      ],
      "stateMutability": "view",
      "type": "function"
    },
    {
      "inputs": [
        {
          "internalType": "address",
          "name": "patient",
          "type": "address"
        }
      ],
      "name": "getPendingRequests",
      "outputs": [
        {
          "internalType": "address[]",
          "name": "",
          "type": "address[]"
        }
      ],
      "stateMutability": "view",
      "type": "function"
    },
    {
      "inputs": [
        {
          "internalType": "address",
          "name": "user",
          "type": "address"
        }
      ],
      "name": "getUserRole",
      "outputs": [
        {
          "internalType": "uint8",
          "name": "",
          "type": "uint8"
        }
      ],
      "stateMutability": "view",
      "type": "function"
    },
    {
      "inputs": [
        {
          "internalType": "address",
          "name": "",
          "type": "address"
        },
        {
          "internalType": "uint256",
          "name": "",
          "type": "uint256"
        }
      ],
      "name": "patientAppointments",
      "outputs": [
        {
          "internalType": "address",
          "name": "patient",
          "type": "address"
        },
        {
          "internalType": "address",
          "name": "doctor",
          "type": "address"
        },
        {
          "internalType": "uint256",
          "name": "date",
          "type": "uint256"
        },
        {
          "internalType": "uint256",
          "name": "time",
          "type": "uint256"
        },
        {
          "internalType": "enum MedicalWallet.AppointmentStatus",
          "name": "status",
          "type": "uint8"
        }
      ],
      "stateMutability": "view",
      "type": "function"
    },
    {
      "inputs": [],
      "name": "patientCount",
      "outputs": [
        {
          "internalType": "uint256",
          "name": "",
          "type": "uint256"
        }
      ],
      "stateMutability": "view",
      "type": "function"
    },
    {
      "inputs": [
        {
          "internalType": "address",
          "name": "",
          "type": "address"
        },
        {
          "internalType": "uint256",
          "name": "",
          "type": "uint256"
        }
      ],
      "name": "patientFiles",
      "outputs": [
        {
          "internalType": "address",
          "name": "doctor",
          "type": "address"
        },
        {
          "internalType": "string",
          "name": "ipfsHash",
          "type": "string"
        },
        {
          "internalType": "uint256",
          "name": "timestamp",
          "type": "uint256"
        }
      ],
      "stateMutability": "view",
      "type": "function"
    },
    {
      "inputs": [
        {
          "internalType": "address",
          "name": "",
          "type": "address"
        },
        {
          "internalType": "uint256",
          "name": "",
          "type": "uint256"
        }
      ],
      "name": "patientPrescription",
      "outputs": [
        {
          "internalType": "address",
          "name": "doctor",
          "type": "address"
        },
        {
          "internalType": "string",
          "name": "ipfsHash",
          "type": "string"
        },
        {
          "internalType": "uint256",
          "name": "timestamp",
          "type": "uint256"
        }
      ],
      "stateMutability": "view",
      "type": "function"
    },
    {
      "inputs": [
        {
          "internalType": "address",
          "name": "",
          "type": "address"
        },
        {
          "internalType": "uint256",
          "name": "",
          "type": "uint256"
        }
      ],
      "name": "patientTreatment",
      "outputs": [
        {
          "internalType": "address",
          "name": "doctor",
          "type": "address"
        },
        {
          "internalType": "string",
          "name": "notes",
          "type": "string"
        },
        {
          "internalType": "uint256",
          "name": "timestamp",
          "type": "uint256"
        }
      ],
      "stateMutability": "view",
      "type": "function"
    },
    {
      "inputs": [
        {
          "internalType": "address",
          "name": "",
          "type": "address"
        }
      ],
      "name": "patients",
      "outputs": [
        {
          "internalType": "string",
          "name": "name",
          "type": "string"
        },
        {
          "internalType": "uint256",
          "name": "age",
          "type": "uint256"
        },
        {
          "internalType": "string",
          "name": "gender",
          "type": "string"
        },
        {
          "internalType": "string",
          "name": "idType",
          "type": "string"
        },
        {
          "internalType": "string",
          "name": "idNumber",
          "type": "string"
        },
        {
          "internalType": "string",
          "name": "ipfsHash",
          "type": "string"
        }
      ],
      "stateMutability": "view",
      "type": "function"
    },
    {
      "inputs": [
        {
          "internalType": "address",
          "name": "",
          "type": "address"
        },
        {
          "internalType": "uint256",
          "name": "",
          "type": "uint256"
        }
      ],
      "name": "pendingAccessRequests",
      "outputs": [
        {
          "internalType": "address",
          "name": "",
          "type": "address"
        }
      ],
      "stateMutability": "view",
      "type": "function"
    },
    {
      "inputs": [
        {
          "internalType": "string",
          "name": "name",
          "type": "string"
        },
        {
          "internalType": "string",
          "name": "specialization",
          "type": "string"
        },
        {
          "internalType": "uint256",
          "name": "experience",
          "type": "uint256"
        },
        {
          "internalType": "string",
          "name": "licenseNumber",
          "type": "string"
        },
        {
          "internalType": "string",
          "name": "ipfsHash",
          "type": "string"
        }
      ],
      "name": "registerDoctor",
      "outputs": [],
      "stateMutability": "nonpayable",
      "type": "function"
    },
    {
      "inputs": [
        {
          "internalType": "string",
          "name": "name",
          "type": "string"
        },
        {
          "internalType": "uint256",
          "name": "age",
          "type": "uint256"
        },
        {
          "internalType": "string",
          "name": "gender",
          "type": "string"
        },
        {
          "internalType": "string",
          "name": "idType",
          "type": "string"
        },
        {
          "internalType": "string",
          "name": "idNumber",
          "type": "string"
        },
        {
          "internalType": "string",
          "name": "ipfsHash",
          "type": "string"
        }
      ],
      "name": "registerPatient",
      "outputs": [],
      "stateMutability": "nonpayable",
      "type": "function"
    },
    {
      "inputs": [
        {
          "internalType": "uint256",
          "name": "index",
          "type": "uint256"
        }
      ],
      "name": "rejectAppointment",
      "outputs": [],
      "stateMutability": "nonpayable",
      "type": "function"
    },
    {
      "inputs": [
        {
          "internalType": "address",
          "name": "doctor",
          "type": "address"
        },
        {
          "internalType": "uint256",
          "name": "date",
          "type": "uint256"
        },
        {
          "internalType": "uint256",
          "name": "time",
          "type": "uint256"
        }
      ],
      "name": "requestAppointment",
      "outputs": [],
      "stateMutability": "nonpayable",
      "type": "function"
    },
    {
      "inputs": [
        {
          "internalType": "address",
          "name": "patient",
          "type": "address"
        }
      ],
      "name": "requestMedicalAccess",
      "outputs": [],
      "stateMutability": "nonpayable",
      "type": "function"
    },
    {
      "inputs": [
        {
          "internalType": "string",
          "name": "newIpfsHash",
          "type": "string"
        }
      ],
      "name": "updateDoctorHash",
      "outputs": [],
      "stateMutability": "nonpayable",
      "type": "function"
    },
    {
      "inputs": [
        {
          "internalType": "string",
          "name": "newIpfsHash",
          "type": "string"
        }
      ],
      "name": "updatePatientHash",
      "outputs": [],
      "stateMutability": "nonpayable",
      "type": "function"
    },
    {
      "inputs": [
        {
          "internalType": "address",
          "name": "patient",
          "type": "address"
        },
        {
          "internalType": "string",
          "name": "ipfsHash",
          "type": "string"
        }
      ],
      "name": "uploadDoctorFile",
      "outputs": [],
      "stateMutability": "nonpayable",
      "type": "function"
    },
    {
      "inputs": [
        {
          "internalType": "address",
          "name": "patient",
          "type": "address"
        },
        {
          "internalType": "string",
          "name": "ipfsHash",
          "type": "string"
        }
      ],
      "name": "uploadPrescription",
      "outputs": [],
      "stateMutability": "nonpayable",
      "type": "function"
    },
    {
      "inputs": [
        {
          "internalType": "address",
          "name": "",
          "type": "address"
        }
      ],
      "name": "userRoles",
      "outputs": [
        {
          "internalType": "enum MedicalWallet.Role",
          "name": "",
          "type": "uint8"
        }
      ],
      "stateMutability": "view",
      "type": "function"
    }
  ],
  "bytecode": "0x608060405234801561001057600080fd5b5060008054336001600160a01b0319909116811782558152600360208190526040909120805460ff19169091179055610400600155610100600255613d658061005a6000396000f3fe608060405234801561001057600080fd5b50600436106102325760003560e01c806387da432d11610130578063b5368e20116100b8578063ec5066701161007c578063ec50667014610594578063f05bfa7b146105a7578063f0d95090146105c7578063f851a440146105dc578063fe127fcb146105ef57600080fd5b8063b5368e201461050c578063b7ae698b1461052c578063c1816dfb1461053f578063c551f8721461055f578063ceaf444e1461057f57600080fd5b80639e630f7c116100ff5780639e630f7c1461049e578063a0303c41146104b1578063a51c90bd146104ba578063a5373899146104cd578063a9583c22146104e857600080fd5b806387da432d146104455780638a462e1a14610458578063929ff953146104785780639e4d40b91461048b57600080fd5b8063346f223e116101be5780635080f219116101825780635080f219146103b457806357cd46f5146103c75780636a85de14146103eb57806374d5e100146103fe57806378522bc41461042e57600080fd5b8063346f223e1461032b5780633695d461146103415780633ba51e7c1461036c578063473d8bf51461037f5780634a10a34d146103a157600080fd5b80631cfc8d1f116102055780631cfc8d1f146102a057806324919ac9146102c057806327820851146102d35780632bd5422d146102f85780632f04e0641461030b57600080fd5b8063064eac8a146102375780630869cfbc1461024c57806313aae3fa1461027a57806319a523291461028d575b600080fd5b61024a61024536600461320c565b61062d565b005b61025f61025a366004613241565b6108b0565b604051610271969594939291906132a9565b60405180910390f35b61024a6102883660046133c0565b610b8c565b61024a61029b3660046133fd565b610c6e565b6102b36102ae366004613241565b610d99565b6040516102719190613486565b61024a6102ce36600461320c565b610ec0565b6102e66102e1366004613241565b611135565b60405160ff9091168152602001610271565b61024a6103063660046133c0565b611169565b61031e610319366004613241565b611247565b604051610271919061355d565b6103336114f4565b604051610271929190613609565b61035461034f36600461362e565b6118bb565b6040516001600160a01b039091168152602001610271565b61035461037a36600461320c565b6118f3565b61039261038d36600461362e565b61191d565b60405161027193929190613658565b61024a6103af3660046133fd565b6119f3565b61024a6103c236600461368c565b611aa8565b6103da6103d536600461362e565b611c55565b60405161027195949392919061376d565b6103da6103f936600461362e565b611cb3565b61042161040c366004613241565b60036020526000908152604090205460ff1681565b60405161027191906137aa565b61043760025481565b604051908152602001610271565b61039261045336600461362e565b611ccf565b61046b610466366004613241565b611ceb565b60405161027191906137c4565b61024a610486366004613819565b611e07565b61024a61049936600461384c565b6120ac565b61024a6104ac366004613241565b612231565b61043760015481565b61024a6104c8366004613241565b6122ff565b60015460025460408051928352602083019190915201610271565b6104fb6104f6366004613241565b6124df565b604051610271959493929190613926565b61051f61051a366004613241565b61272d565b6040516102719190613985565b61024a61053a3660046133fd565b6129ea565b61055261054d366004613241565b612a9f565b6040516102719190613a21565b61057261056d366004613241565b612bbb565b6040516102719190613a76565b610587612c6a565b6040516102719190613a89565b6103926105a236600461362e565b612e19565b6105ba6105b5366004613241565b612e35565b6040516102719190613b02565b6105cf612eaa565b6040516102719190613b15565b600054610354906001600160a01b031681565b61061d6105fd366004613b28565b600960209081526000928352604080842090915290825290205460ff1681565b6040519015158152602001610271565b60023360009081526003602081905260409091205460ff169081111561065557610655613743565b146106a75760405162461bcd60e51b815260206004820152601860248201527f4f6e6c7920646f63746f72732063616e20617070726f7665000000000000000060448201526064015b60405180910390fd5b3360009081526008602052604081208054839081106106c8576106c8613b5b565b6000918252602082206005909102019150600482015460ff1660028111156106f2576106f2613743565b146107335760405162461bcd60e51b8152602060048201526011602482015270105b1c9958591e481c1c9bd8d95cdcd959607a1b604482015260640161069e565b60048101805460ff1916600117905580546001600160a01b03166000908152600760205260408120905b815481101561086657336001600160a01b031682828154811061078257610782613b5b565b60009182526020909120600160059092020101546001600160a01b03161480156107d2575082600201548282815481106107be576107be613b5b565b906000526020600020906005020160020154145b8015610804575082600301548282815481106107f0576107f0613b5b565b906000526020600020906005020160030154145b1561085457600182828154811061081d5761081d613b5b565b60009182526020909120600460059092020101805460ff1916600183600281111561084a5761084a613743565b0217905550610866565b8061085e81613b87565b91505061075d565b5081546040518481526001600160a01b039091169033907fb56ea6c3c20b509475c50f12bf5700fab5d48daa12e431ade69f608bd5f26f2c906020015b60405180910390a3505050565b6004602052600090815260409020805481906108cb90613ba0565b80601f01602080910402602001604051908101604052809291908181526020018280546108f790613ba0565b80156109445780601f1061091957610100808354040283529160200191610944565b820191906000526020600020905b81548152906001019060200180831161092757829003601f168201915b50505050509080600101549080600201805461095f90613ba0565b80601f016020809104026020016040519081016040528092919081815260200182805461098b90613ba0565b80156109d85780601f106109ad576101008083540402835291602001916109d8565b820191906000526020600020905b8154815290600101906020018083116109bb57829003601f168201915b5050505050908060030180546109ed90613ba0565b80601f0160208091040260200160405190810160405280929190818152602001828054610a1990613ba0565b8015610a665780601f10610a3b57610100808354040283529160200191610a66565b820191906000526020600020905b815481529060010190602001808311610a4957829003601f168201915b505050505090806004018054610a7b90613ba0565b80601f0160208091040260200160405190810160405280929190818152602001828054610aa790613ba0565b8015610af45780601f10610ac957610100808354040283529160200191610af4565b820191906000526020600020905b815481529060010190602001808311610ad757829003601f168201915b505050505090806005018054610b0990613ba0565b80601f0160208091040260200160405190810160405280929190818152602001828054610b3590613ba0565b8015610b825780601f10610b5757610100808354040283529160200191610b82565b820191906000526020600020905b815481529060010190602001808311610b6557829003601f168201915b5050505050905086565b60023360009081526003602081905260409091205460ff1690811115610bb457610bb4613743565b14610c015760405162461bcd60e51b815260206004820152601760248201527f4f6e6c7920646f63746f72732063616e20757064617465000000000000000000604482015260640161069e565b6000815111610c4e5760405162461bcd60e51b81526020600482015260196024820152784950465320686173682063616e6e6f7420626520656d70747960381b604482015260640161069e565b336000908152600560205260409020600401610c6a8282613c23565b5050565b60023360009081526003602081905260409091205460ff1690811115610c9657610c96613743565b14610cd25760405162461bcd60e51b815260206004820152600c60248201526b4f6e6c7920646f63746f727360a01b604482015260640161069e565b6001600160a01b038216600090815260096020908152604080832033845290915290205460ff16610d155760405162461bcd60e51b815260040161069e90613ce3565b60408051606081018252338152602080820184815242838501526001600160a01b038681166000908152600d845294852080546001808201835591875293909520845160039094020180546001600160a01b03191693909116929092178255519192839290820190610d879082613c23565b50604082015181600201555050505050565b6001600160a01b0381166000908152600b60209081526040808320805482518185028101850190935280835260609492939192909184015b82821015610eb557600084815260209081902060408051606081019091526003850290910180546001600160a01b031682526001810180549293919291840191610e1a90613ba0565b80601f0160208091040260200160405190810160405280929190818152602001828054610e4690613ba0565b8015610e935780601f10610e6857610100808354040283529160200191610e93565b820191906000526020600020905b815481529060010190602001808311610e7657829003601f168201915b5050505050815260200160028201548152505081526020019060010190610dd1565b505050509050919050565b60023360009081526003602081905260409091205460ff1690811115610ee857610ee8613743565b14610f355760405162461bcd60e51b815260206004820152601760248201527f4f6e6c7920646f63746f72732063616e2072656a656374000000000000000000604482015260640161069e565b336000908152600860205260408120805483908110610f5657610f56613b5b565b6000918252602082206005909102019150600482015460ff166002811115610f8057610f80613743565b14610fc15760405162461bcd60e51b8152602060048201526011602482015270105b1c9958591e481c1c9bd8d95cdcd959607a1b604482015260640161069e565b60048101805460ff1916600217905580546001600160a01b03166000908152600760205260408120905b81548110156110f457336001600160a01b031682828154811061101057611010613b5b565b60009182526020909120600160059092020101546001600160a01b03161480156110605750826002015482828154811061104c5761104c613b5b565b906000526020600020906005020160020154145b80156110925750826003015482828154811061107e5761107e613b5b565b906000526020600020906005020160030154145b156110e25760028282815481106110ab576110ab613b5b565b60009182526020909120600460059092020101805460ff191660018360028111156110d8576110d8613743565b02179055506110f4565b806110ec81613b87565b915050610feb565b5081546040518481526001600160a01b039091169033907ffd00f194a25d992fded06afa1875bb6a29b0957ce74289209a8358f2d4418631906020016108a3565b6001600160a01b038116600090815260036020819052604082205460ff169081111561116357611163613743565b92915050565b60013360009081526003602081905260409091205460ff169081111561119157611191613743565b146111de5760405162461bcd60e51b815260206004820152601860248201527f4f6e6c792070617469656e74732063616e207570646174650000000000000000604482015260640161069e565b600081511161122b5760405162461bcd60e51b81526020600482015260196024820152784950465320686173682063616e6e6f7420626520656d70747960381b604482015260640161069e565b336000908152600460205260409020600501610c6a8282613c23565b6112796040518060a0016040528060608152602001606081526020016000815260200160608152602001606081525090565b6001600160a01b03821660009081526005602052604090819020815160a081019092528054829082906112ab90613ba0565b80601f01602080910402602001604051908101604052809291908181526020018280546112d790613ba0565b80156113245780601f106112f957610100808354040283529160200191611324565b820191906000526020600020905b81548152906001019060200180831161130757829003601f168201915b5050505050815260200160018201805461133d90613ba0565b80601f016020809104026020016040519081016040528092919081815260200182805461136990613ba0565b80156113b65780601f1061138b576101008083540402835291602001916113b6565b820191906000526020600020905b81548152906001019060200180831161139957829003601f168201915b50505050508152602001600282015481526020016003820180546113d990613ba0565b80601f016020809104026020016040519081016040528092919081815260200182805461140590613ba0565b80156114525780601f1061142757610100808354040283529160200191611452565b820191906000526020600020905b81548152906001019060200180831161143557829003601f168201915b5050505050815260200160048201805461146b90613ba0565b80601f016020809104026020016040519081016040528092919081815260200182805461149790613ba0565b80156114e45780601f106114b9576101008083540402835291602001916114e4565b820191906000526020600020905b8154815290600101906020018083116114c757829003601f168201915b5050505050815250509050919050565b606080600060068054905067ffffffffffffffff8111156115175761151761331d565b60405190808252806020026020018201604052801561157a57816020015b6115676040518060a0016040528060608152602001606081526020016000815260200160608152602001606081525090565b8152602001906001900390816115355790505b50905060005b6006548110156118525760056000600683815481106115a1576115a1613b5b565b60009182526020808320909101546001600160a01b031683528201929092526040908101909120815160a081019092528054829082906115e090613ba0565b80601f016020809104026020016040519081016040528092919081815260200182805461160c90613ba0565b80156116595780601f1061162e57610100808354040283529160200191611659565b820191906000526020600020905b81548152906001019060200180831161163c57829003601f168201915b5050505050815260200160018201805461167290613ba0565b80601f016020809104026020016040519081016040528092919081815260200182805461169e90613ba0565b80156116eb5780601f106116c0576101008083540402835291602001916116eb565b820191906000526020600020905b8154815290600101906020018083116116ce57829003601f168201915b505050505081526020016002820154815260200160038201805461170e90613ba0565b80601f016020809104026020016040519081016040528092919081815260200182805461173a90613ba0565b80156117875780601f1061175c57610100808354040283529160200191611787565b820191906000526020600020905b81548152906001019060200180831161176a57829003601f168201915b505050505081526020016004820180546117a090613ba0565b80601f01602080910402602001604051908101604052809291908181526020018280546117cc90613ba0565b80156118195780601f106117ee57610100808354040283529160200191611819565b820191906000526020600020905b8154815290600101906020018083116117fc57829003601f168201915b50505050508152505082828151811061183457611834613b5b565b6020026020010181905250808061184a90613b87565b915050611580565b50600681818054806020026020016040519081016040528092919081815260200182805480156118ab57602002820191906000526020600020905b81546001600160a01b0316815260019091019060200180831161188d575b5050505050915092509250509091565b600a60205281600052604060002081815481106118d757600080fd5b6000918252602090912001546001600160a01b03169150829050565b6006818154811061190357600080fd5b6000918252602090912001546001600160a01b0316905081565b600d602052816000526040600020818154811061193957600080fd5b6000918252602090912060039091020180546001820180546001600160a01b03909216945091925061196a90613ba0565b80601f016020809104026020016040519081016040528092919081815260200182805461199690613ba0565b80156119e35780601f106119b8576101008083540402835291602001916119e3565b820191906000526020600020905b8154815290600101906020018083116119c657829003601f168201915b5050505050908060020154905083565b6001600160a01b038216600090815260096020908152604080832033845290915290205460ff16611a365760405162461bcd60e51b815260040161069e90613ce3565b60408051606081018252338152602080820184815242838501526001600160a01b038681166000908152600b845294852080546001808201835591875293909520845160039094020180546001600160a01b03191693909116929092178255519192839290820190610d879082613c23565b33600090815260036020819052604082205460ff1690811115611acd57611acd613743565b14611b0f5760405162461bcd60e51b8152602060048201526012602482015271105b1c9958591e481c9959da5cdd195c995960721b604482015260640161069e565b336000908152600360205260408120805460ff19166002908117909155805491611b3883613b87565b90915550506040805160a0810182528681526020808201879052818301869052606082018590526080820184905233600090815260059091529190912081518190611b839082613c23565b5060208201516001820190611b989082613c23565b506040820151600282015560608201516003820190611bb79082613c23565b5060808201516004820190611bcc9082613c23565b5050600680546001810182556000919091527ff652222313e28459528d920b65115c16c04f3efc82aaedc97be59f3f377c0d3f0180546001600160a01b031916339081179091556040519091507f20481b8112b5bf4734f45a473c373db9df6a79ce946cdc0e7dbc22b4f7d7f98690611c46908890613a76565b60405180910390a25050505050565b60086020528160005260406000208181548110611c7157600080fd5b6000918252602090912060059091020180546001820154600283015460038401546004909401546001600160a01b039384169650929091169350919060ff1685565b60076020528160005260406000208181548110611c7157600080fd5b600c602052816000526040600020818154811061193957600080fd5b6001600160a01b0381166000908152600c60209081526040808320805482518185028101850190935280835260609492939192909184015b82821015610eb557600084815260209081902060408051606081019091526003850290910180546001600160a01b031682526001810180549293919291840191611d6c90613ba0565b80601f0160208091040260200160405190810160405280929190818152602001828054611d9890613ba0565b8015611de55780601f10611dba57610100808354040283529160200191611de5565b820191906000526020600020905b815481529060010190602001808311611dc857829003601f168201915b5050505050815260200160028201548152505081526020019060010190611d23565b60013360009081526003602081905260409091205460ff1690811115611e2f57611e2f613743565b14611e7c5760405162461bcd60e51b815260206004820152601960248201527f4f6e6c792070617469656e74732063616e207265717565737400000000000000604482015260640161069e565b60026001600160a01b03841660009081526003602081905260409091205460ff1690811115611ead57611ead613743565b14611efa5760405162461bcd60e51b815260206004820152601760248201527f4e6f742061207265676973746572656420646f63746f72000000000000000000604482015260640161069e565b6040805160a081018252338082526001600160a01b0386811660208085019182528486018881526060860188815260006080880181815296815260078452978820805460018082018355918a5293909820875160059094020180549386166001600160a01b031994851617815593518489018054919096169316929092179093559151600280830191909155915160038201559151600483018054949586959293919260ff1916918490811115611fb357611fb3613743565b021790555050506001600160a01b03808516600090815260086020908152604080832080546001818101835591855293839020865160059095020180549486166001600160a01b031995861617815592860151838201805491909616941693909317909355918301516002808401919091556060840151600384015560808401516004840180548695949293919260ff1990911691849081111561205957612059613743565b02179055505060408051858152602081018590526001600160a01b038716925033917f741e671600fa0af7276896885ca3ab6c15f4faa2479109dec4cd1590478d7696910160405180910390a350505050565b33600090815260036020819052604082205460ff16908111156120d1576120d1613743565b146121135760405162461bcd60e51b8152602060048201526012602482015271105b1c9958591e481c9959da5cdd195c995960721b604482015260640161069e565b336000908152600360205260408120805460ff1916600190811790915580549161213c83613b87565b90915550506040805160c0810182528781526020808201889052818301879052606082018690526080820185905260a082018490523360009081526004909152919091208151819061218e9082613c23565b5060208201516001820155604082015160028201906121ad9082613c23565b50606082015160038201906121c29082613c23565b50608082015160048201906121d79082613c23565b5060a082015160058201906121ec9082613c23565b50506040513391507fc85b128388b9c331a2a5485dce4cd0f3db9f7c279d327ce95d6d39d6c94644c790612221908990613a76565b60405180910390a2505050505050565b60023360009081526003602081905260409091205460ff169081111561225957612259613743565b146122955760405162461bcd60e51b815260206004820152600c60248201526b4f6e6c7920646f63746f727360a01b604482015260640161069e565b6001600160a01b0381166000818152600a60209081526040808320805460018101825590845291832090910180546001600160a01b0319163390811790915590519092917f40c7749b16fdfb0d550f20273a7767875059d647af94f5a9610c63ad73dcc79f91a350565b60013360009081526003602081905260409091205460ff169081111561232757612327613743565b146123645760405162461bcd60e51b815260206004820152600d60248201526c4f6e6c792070617469656e747360981b604482015260640161069e565b3360008181526009602090815260408083206001600160a01b03861684528252808320805460ff19166001179055928252600a9052908120905b81548110156124a457826001600160a01b03168282815481106123c3576123c3613b5b565b6000918252602090912001546001600160a01b03160361249257815482906123ed90600190613d06565b815481106123fd576123fd613b5b565b9060005260206000200160009054906101000a90046001600160a01b031682828154811061242d5761242d613b5b565b9060005260206000200160006101000a8154816001600160a01b0302191690836001600160a01b031602179055508180548061246b5761246b613d19565b600082815260209020810160001990810180546001600160a01b03191690550190556124a4565b8061249c81613b87565b91505061239e565b506040516001600160a01b0383169033907fe6334627d2d1b816244f24397d90a02beea6f06a64333958f2fca9a73f84266d90600090a35050565b6005602052600090815260409020805481906124fa90613ba0565b80601f016020809104026020016040519081016040528092919081815260200182805461252690613ba0565b80156125735780601f1061254857610100808354040283529160200191612573565b820191906000526020600020905b81548152906001019060200180831161255657829003601f168201915b50505050509080600101805461258890613ba0565b80601f01602080910402602001604051908101604052809291908181526020018280546125b490613ba0565b80156126015780601f106125d657610100808354040283529160200191612601565b820191906000526020600020905b8154815290600101906020018083116125e457829003601f168201915b50505050509080600201549080600301805461261c90613ba0565b80601f016020809104026020016040519081016040528092919081815260200182805461264890613ba0565b80156126955780601f1061266a57610100808354040283529160200191612695565b820191906000526020600020905b81548152906001019060200180831161267857829003601f168201915b5050505050908060040180546126aa90613ba0565b80601f01602080910402602001604051908101604052809291908181526020018280546126d690613ba0565b80156127235780601f106126f857610100808354040283529160200191612723565b820191906000526020600020905b81548152906001019060200180831161270657829003601f168201915b5050505050905085565b6127666040518060c001604052806060815260200160008152602001606081526020016060815260200160608152602001606081525090565b6001600160a01b03821660009081526004602052604090819020815160c0810190925280548290829061279890613ba0565b80601f01602080910402602001604051908101604052809291908181526020018280546127c490613ba0565b80156128115780601f106127e657610100808354040283529160200191612811565b820191906000526020600020905b8154815290600101906020018083116127f457829003601f168201915b505050505081526020016001820154815260200160028201805461283490613ba0565b80601f016020809104026020016040519081016040528092919081815260200182805461286090613ba0565b80156128ad5780601f10612882576101008083540402835291602001916128ad565b820191906000526020600020905b81548152906001019060200180831161289057829003601f168201915b505050505081526020016003820180546128c690613ba0565b80601f01602080910402602001604051908101604052809291908181526020018280546128f290613ba0565b801561293f5780601f106129145761010080835404028352916020019161293f565b820191906000526020600020905b81548152906001019060200180831161292257829003601f168201915b5050505050815260200160048201805461295890613ba0565b80601f016020809104026020016040519081016040528092919081815260200182805461298490613ba0565b80156129d15780601f106129a6576101008083540402835291602001916129d1565b820191906000526020600020905b8154815290600101906020018083116129b457829003601f168201915b5050505050815260200160058201805461146b90613ba0565b6001600160a01b038216600090815260096020908152604080832033845290915290205460ff16612a2d5760405162461bcd60e51b815260040161069e90613ce3565b60408051606081018252338152602080820184815242838501526001600160a01b038681166000908152600c845294852080546001808201835591875293909520845160039094020180546001600160a01b03191693909116929092178255519192839290820190610d879082613c23565b6001600160a01b0381166000908152600d60209081526040808320805482518185028101850190935280835260609492939192909184015b82821015610eb557600084815260209081902060408051606081019091526003850290910180546001600160a01b031682526001810180549293919291840191612b2090613ba0565b80601f0160208091040260200160405190810160405280929190818152602001828054612b4c90613ba0565b8015612b995780601f10612b6e57610100808354040283529160200191612b99565b820191906000526020600020905b815481529060010190602001808311612b7c57829003601f168201915b5050505050815260200160028201548152505081526020019060010190612ad7565b6001600160a01b0381166000908152600460205260409020600501805460609190612be590613ba0565b80601f0160208091040260200160405190810160405280929190818152602001828054612c1190613ba0565b8015612c5e5780601f10612c3357610100808354040283529160200191612c5e565b820191906000526020600020905b815481529060010190602001808311612c4157829003601f168201915b50505050509050919050565b606060013360009081526003602081905260409091205460ff1690811115612c9457612c94613743565b1480612cc5575060023360009081526003602081905260409091205460ff1690811115612cc357612cc3613743565b145b612d025760405162461bcd60e51b815260206004820152600e60248201526d139bdd08185d5d1a1bdc9a5e995960921b604482015260640161069e565b60013360009081526003602081905260409091205460ff1690811115612d2a57612d2a613743565b14612d4357336000908152600860205260409020612d53565b3360009081526007602052604090205b805480602002602001604051908101604052809291908181526020016000905b82821015612e105760008481526020908190206040805160a0810182526005860290920180546001600160a01b0390811684526001820154169383019390935260028084015491830191909152600383015460608301526004830154919291608084019160ff90911690811115612dec57612dec613743565b6002811115612dfd57612dfd613743565b8152505081526020019060010190612d73565b50505050905090565b600b602052816000526040600020818154811061193957600080fd5b6001600160a01b0381166000908152600a6020908152604091829020805483518184028101840190945280845260609392830182828015612c5e57602002820191906000526020600020905b81546001600160a01b03168152600190910190602001808311612e815750505050509050919050565b60065460609060009067ffffffffffffffff811115612ecb57612ecb61331d565b604051908082528060200260200182016040528015612f2e57816020015b612f1b6040518060a0016040528060608152602001606081526020016000815260200160608152602001606081525090565b815260200190600190039081612ee95790505b50905060005b600654811015613206576005600060068381548110612f5557612f55613b5b565b60009182526020808320909101546001600160a01b031683528201929092526040908101909120815160a08101909252805482908290612f9490613ba0565b80601f0160208091040260200160405190810160405280929190818152602001828054612fc090613ba0565b801561300d5780601f10612fe25761010080835404028352916020019161300d565b820191906000526020600020905b815481529060010190602001808311612ff057829003601f168201915b5050505050815260200160018201805461302690613ba0565b80601f016020809104026020016040519081016040528092919081815260200182805461305290613ba0565b801561309f5780601f106130745761010080835404028352916020019161309f565b820191906000526020600020905b81548152906001019060200180831161308257829003601f168201915b50505050508152602001600282015481526020016003820180546130c290613ba0565b80601f01602080910402602001604051908101604052809291908181526020018280546130ee90613ba0565b801561313b5780601f106131105761010080835404028352916020019161313b565b820191906000526020600020905b81548152906001019060200180831161311e57829003601f168201915b5050505050815260200160048201805461315490613ba0565b80601f016020809104026020016040519081016040528092919081815260200182805461318090613ba0565b80156131cd5780601f106131a2576101008083540402835291602001916131cd565b820191906000526020600020905b8154815290600101906020018083116131b057829003601f168201915b5050505050815250508282815181106131e8576131e8613b5b565b602002602001018190525080806131fe90613b87565b915050612f34565b50919050565b60006020828403121561321e57600080fd5b5035919050565b80356001600160a01b038116811461323c57600080fd5b919050565b60006020828403121561325357600080fd5b61325c82613225565b9392505050565b6000815180845260005b818110156132895760208185018101518683018201520161326d565b506000602082860101526020601f19601f83011685010191505092915050565b60c0815260006132bc60c0830189613263565b87602084015282810360408401526132d48188613263565b905082810360608401526132e88187613263565b905082810360808401526132fc8186613263565b905082810360a08401526133108185613263565b9998505050505050505050565b634e487b7160e01b600052604160045260246000fd5b600082601f83011261334457600080fd5b813567ffffffffffffffff8082111561335f5761335f61331d565b604051601f8301601f19908116603f011681019082821181831017156133875761338761331d565b816040528381528660208588010111156133a057600080fd5b836020870160208301376000602085830101528094505050505092915050565b6000602082840312156133d257600080fd5b813567ffffffffffffffff8111156133e957600080fd5b6133f584828501613333565b949350505050565b6000806040838503121561341057600080fd5b61341983613225565b9150602083013567ffffffffffffffff81111561343557600080fd5b61344185828601613333565b9150509250929050565b60018060a01b03815116825260006020820151606060208501526134726060850182613263565b604093840151949093019390935250919050565b6000602080830181845280855180835260408601915060408160051b870101925083870160005b828110156134db57603f198886030184526134c985835161344b565b945092850192908501906001016134ad565b5092979650505050505050565b6000815160a084526134fd60a0850182613263565b9050602083015184820360208601526135168282613263565b915050604083015160408501526060830151848203606086015261353a8282613263565b915050608083015184820360808601526135548282613263565b95945050505050565b60208152600061325c60208301846134e8565b600081518084526020808501945080840160005b838110156135a95781516001600160a01b031687529582019590820190600101613584565b509495945050505050565b600081518084526020808501808196508360051b8101915082860160005b858110156135fc5782840389526135ea8483516134e8565b988501989350908401906001016135d2565b5091979650505050505050565b60408152600061361c6040830185613570565b828103602084015261355481856135b4565b6000806040838503121561364157600080fd5b61364a83613225565b946020939093013593505050565b6001600160a01b038416815260606020820181905260009061367c90830185613263565b9050826040830152949350505050565b600080600080600060a086880312156136a457600080fd5b853567ffffffffffffffff808211156136bc57600080fd5b6136c889838a01613333565b965060208801359150808211156136de57600080fd5b6136ea89838a01613333565b955060408801359450606088013591508082111561370757600080fd5b61371389838a01613333565b9350608088013591508082111561372957600080fd5b5061373688828901613333565b9150509295509295909350565b634e487b7160e01b600052602160045260246000fd5b6003811061376957613769613743565b9052565b6001600160a01b03868116825285166020820152604081018490526060810183905260a081016137a06080830184613759565b9695505050505050565b60208101600483106137be576137be613743565b91905290565b6000602080830181845280855180835260408601915060408160051b870101925083870160005b828110156134db57603f1988860301845261380785835161344b565b945092850192908501906001016137eb565b60008060006060848603121561382e57600080fd5b61383784613225565b95602085013595506040909401359392505050565b60008060008060008060c0878903121561386557600080fd5b863567ffffffffffffffff8082111561387d57600080fd5b6138898a838b01613333565b97506020890135965060408901359150808211156138a657600080fd5b6138b28a838b01613333565b955060608901359150808211156138c857600080fd5b6138d48a838b01613333565b945060808901359150808211156138ea57600080fd5b6138f68a838b01613333565b935060a089013591508082111561390c57600080fd5b5061391989828a01613333565b9150509295509295509295565b60a08152600061393960a0830188613263565b828103602084015261394b8188613263565b905085604084015282810360608401526139658186613263565b905082810360808401526139798185613263565b98975050505050505050565b602081526000825160c060208401526139a160e0840182613263565b9050602084015160408401526040840151601f19808584030160608601526139c98383613263565b925060608601519150808584030160808601526139e68383613263565b925060808601519150808584030160a0860152613a038383613263565b925060a08601519150808584030160c0860152506135548282613263565b6000602080830181845280855180835260408601915060408160051b870101925083870160005b828110156134db57603f19888603018452613a6485835161344b565b94509285019290850190600101613a48565b60208152600061325c6020830184613263565b602080825282518282018190526000919060409081850190868401855b828110156135fc57815180516001600160a01b03908116865287820151168786015285810151868601526060808201519086015260809081015190613aed81870183613759565b505060a0939093019290850190600101613aa6565b60208152600061325c6020830184613570565b60208152600061325c60208301846135b4565b60008060408385031215613b3b57600080fd5b613b4483613225565b9150613b5260208401613225565b90509250929050565b634e487b7160e01b600052603260045260246000fd5b634e487b7160e01b600052601160045260246000fd5b600060018201613b9957613b99613b71565b5060010190565b600181811c90821680613bb457607f821691505b60208210810361320657634e487b7160e01b600052602260045260246000fd5b601f821115613c1e57600081815260208120601f850160051c81016020861015613bfb5750805b601f850160051c820191505b81811015613c1a57828155600101613c07565b5050505b505050565b815167ffffffffffffffff811115613c3d57613c3d61331d565b613c5181613c4b8454613ba0565b84613bd4565b602080601f831160018114613c865760008415613c6e5750858301515b600019600386901b1c1916600185901b178555613c1a565b600085815260208120601f198616915b82811015613cb557888601518255948401946001909101908401613c96565b5085821015613cd35787850151600019600388901b60f8161c191681555b5050505050600190811b01905550565b6020808252600990820152684e6f2061636365737360b81b604082015260600190565b8181038181111561116357611163613b71565b634e487b7160e01b600052603160045260246000fdfea2646970667358221220e77a6780e791882d0c323a3ea62692d7cfc25c772ad3f8ab222cc114d0ad872b64736f6c63430008140033",
  "linkReferences": {},
  "deployedLinkReferences": {}
}